:10068E000A128A11DA2B03138312850103138316C0
:10069E008501FC30850000000A128A110800031340
:1006AE0083128501031383168501603085000000D7
:1006BE000A128A110800031383128501031383168D
:1006CE008501DA30850000000A128A110800031332
:1006DE0083128501031383168501F2308500000015
:1006EE000A128A110800031383128501031383165D
:1006FE0085016630850000000A128A110800031376
:10070E0083128501031383168501B6308500000020
:10071E000A128A110800031383128501031383162C
:10072E008501BE30850000000A128A1108000313ED
:10073E0083128501031383168501E03085000000C6
:10074E000A128A11080003138312850103138316FC
:10075E008501FE30850000000A128A11080003137D
:10076E0083128501031383168501F6308500000080
:10077E000A128A110800031383120130A000000030
:10078E00A00FC72B031383120130A1000000A10F8D
:10079E00CE2B031383120130A2000000A20FA21D64
:1007AE00D52B000008000313831285010313831653
:1007BE0085010313831671308F000A128A114A23A2
:1007CE000000C22356230000C22362230000C2236E
:1007DE006E23C2237A23C2238623C2239223C223EB
:1007EE009E23C223AA23C223B6230000C2230000E5
:0207FE00E42BEA
:04400E00C400FF3FAC
:00000001FF
